{
  "contractName": "ChainHome",
  "abi": [
    {
      "inputs": [],
      "payable": false,
      "stateMutability": "nonpayable",
      "type": "constructor"
    },
    {
      "anonymous": false,
      "inputs": [
        {
          "indexed": false,
          "name": "sender",
          "type": "address"
        },
        {
          "indexed": false,
          "name": "isSuccess",
          "type": "bool"
        },
        {
          "indexed": false,
          "name": "message",
          "type": "string"
        }
      ],
      "name": "NewLandLord",
      "type": "event"
    },
    {
      "anonymous": false,
      "inputs": [
        {
          "indexed": false,
          "name": "sender",
          "type": "address"
        },
        {
          "indexed": false,
          "name": "isSuccess",
          "type": "bool"
        },
        {
          "indexed": false,
          "name": "message",
          "type": "string"
        }
      ],
      "name": "NewTenant",
      "type": "event"
    },
    {
      "anonymous": false,
      "inputs": [
        {
          "indexed": false,
          "name": "sender",
          "type": "address"
        },
        {
          "indexed": false,
          "name": "isSuccess",
          "type": "bool"
        },
        {
          "indexed": false,
          "name": "message",
          "type": "string"
        }
      ],
      "name": "AddHouse",
      "type": "event"
    },
    {
      "anonymous": false,
      "inputs": [
        {
          "indexed": false,
          "name": "belong",
          "type": "address"
        },
        {
          "indexed": false,
          "name": "houseID",
          "type": "string"
        },
        {
          "indexed": false,
          "name": "price_month",
          "type": "uint256"
        },
        {
          "indexed": false,
          "name": "cash_pledge",
          "type": "uint256"
        },
        {
          "indexed": false,
          "name": "message",
          "type": "string"
        }
      ],
      "name": "GetHouseByHouseId",
      "type": "event"
    },
    {
      "anonymous": false,
      "inputs": [
        {
          "indexed": false,
          "name": "sender",
          "type": "address"
        },
        {
          "indexed": false,
          "name": "houseID",
          "type": "bytes32"
        },
        {
          "indexed": false,
          "name": "isSuccess",
          "type": "bool"
        },
        {
          "indexed": false,
          "name": "message",
          "type": "string"
        }
      ],
      "name": "UpdateHouseInfo",
      "type": "event"
    },
    {
      "anonymous": false,
      "inputs": [
        {
          "indexed": false,
          "name": "sender",
          "type": "address"
        },
        {
          "indexed": false,
          "name": "houseID",
          "type": "bytes32"
        },
        {
          "indexed": false,
          "name": "isSuccess",
          "type": "bool"
        },
        {
          "indexed": false,
          "name": "message",
          "type": "string"
        }
      ],
      "name": "DeleteHouse",
      "type": "event"
    },
    {
      "anonymous": false,
      "inputs": [
        {
          "indexed": false,
          "name": "sender",
          "type": "address"
        },
        {
          "indexed": false,
          "name": "houseID",
          "type": "bytes32"
        },
        {
          "indexed": false,
          "name": "_months",
          "type": "uint256"
        },
        {
          "indexed": false,
          "name": "isSuccess",
          "type": "bool"
        },
        {
          "indexed": false,
          "name": "message",
          "type": "string"
        }
      ],
      "name": "RentHouse",
      "type": "event"
    },
    {
      "anonymous": false,
      "inputs": [
        {
          "indexed": false,
          "name": "sender",
          "type": "address"
        },
        {
          "indexed": false,
          "name": "houseID",
          "type": "bytes32"
        },
        {
          "indexed": false,
          "name": "_months",
          "type": "uint256"
        },
        {
          "indexed": false,
          "name": "isSuccess",
          "type": "bool"
        },
        {
          "indexed": false,
          "name": "message",
          "type": "string"
        }
      ],
      "name": "EnsureRentDeal",
      "type": "event"
    },
    {
      "anonymous": false,
      "inputs": [
        {
          "indexed": false,
          "name": "user",
          "type": "address"
        },
        {
          "indexed": false,
          "name": "balance",
          "type": "uint256"
        },
        {
          "indexed": false,
          "name": "message",
          "type": "string"
        }
      ],
      "name": "GetBalance",
      "type": "event"
    },
    {
      "anonymous": false,
      "inputs": [
        {
          "indexed": false,
          "name": "sender",
          "type": "address"
        },
        {
          "indexed": false,
          "name": "message",
          "type": "string"
        }
      ],
      "name": "RechargeFoTenantByAddress",
      "type": "event"
    },
    {
      "anonymous": false,
      "inputs": [
        {
          "indexed": false,
          "name": "sender",
          "type": "address"
        },
        {
          "indexed": false,
          "name": "message",
          "type": "string"
        }
      ],
      "name": "Withdraw",
      "type": "event"
    },
    {
      "constant": false,
      "inputs": [
        {
          "name": "_landlordAddr",
          "type": "address"
        },
        {
          "name": "_passwd",
          "type": "string"
        }
      ],
      "name": "newLandLord",
      "outputs": [],
      "payable": false,
      "stateMutability": "nonpayable",
      "type": "function"
    },
    {
      "constant": false,
      "inputs": [
        {
          "name": "_tenantAddr",
          "type": "address"
        },
        {
          "name": "_passwd",
          "type": "string"
        }
      ],
      "name": "newTenant",
      "outputs": [],
      "payable": false,
      "stateMutability": "nonpayable",
      "type": "function"
    },
    {
      "constant": false,
      "inputs": [
        {
          "name": "_landlordAddr",
          "type": "address"
        },
        {
          "name": "_houseID",
          "type": "string"
        },
        {
          "name": "_area",
          "type": "uint256"
        },
        {
          "name": "_price",
          "type": "uint256"
        },
        {
          "name": "_location",
          "type": "string"
        },
        {
          "name": "_cash_pledge",
          "type": "uint256"
        }
      ],
      "name": "addHouse",
      "outputs": [],
      "payable": false,
      "stateMutability": "nonpayable",
      "type": "function"
    },
    {
      "constant": false,
      "inputs": [
        {
          "name": "houseID",
          "type": "string"
        }
      ],
      "name": "getHouseByHouseId",
      "outputs": [
        {
          "name": "",
          "type": "address"
        },
        {
          "name": "",
          "type": "bytes32"
        },
        {
          "name": "",
          "type": "uint256"
        },
        {
          "name": "",
          "type": "uint256"
        }
      ],
      "payable": false,
      "stateMutability": "nonpayable",
      "type": "function"
    },
    {
      "constant": false,
      "inputs": [
        {
          "name": "keywords",
          "type": "string"
        }
      ],
      "name": "searchHouseByKeyWords",
      "outputs": [
        {
          "name": "",
          "type": "address"
        },
        {
          "name": "",
          "type": "bytes32"
        },
        {
          "name": "",
          "type": "uint256"
        },
        {
          "name": "",
          "type": "uint256"
        }
      ],
      "payable": false,
      "stateMutability": "nonpayable",
      "type": "function"
    },
    {
      "constant": false,
      "inputs": [
        {
          "name": "_houseID",
          "type": "string"
        },
        {
          "name": "price",
          "type": "uint256"
        },
        {
          "name": "_cash_pledge",
          "type": "uint256"
        }
      ],
      "name": "updateHouseInfo",
      "outputs": [
        {
          "name": "",
          "type": "bool"
        }
      ],
      "payable": false,
      "stateMutability": "nonpayable",
      "type": "function"
    },
    {
      "constant": false,
      "inputs": [
        {
          "name": "_landlordAddr",
          "type": "address"
        },
        {
          "name": "houseID",
          "type": "string"
        }
      ],
      "name": "deleteHouse",
      "outputs": [],
      "payable": false,
      "stateMutability": "nonpayable",
      "type": "function"
    },
    {
      "constant": false,
      "inputs": [
        {
          "name": "_tenantAddr",
          "type": "address"
        },
        {
          "name": "_houseID",
          "type": "string"
        },
        {
          "name": "_months",
          "type": "uint256"
        }
      ],
      "name": "rentHouse",
      "outputs": [
        {
          "name": "",
          "type": "bool"
        }
      ],
      "payable": false,
      "stateMutability": "nonpayable",
      "type": "function"
    },
    {
      "constant": false,
      "inputs": [
        {
          "name": "_landlordAddr",
          "type": "address"
        },
        {
          "name": "houseID",
          "type": "string"
        },
        {
          "name": "_months",
          "type": "uint256"
        },
        {
          "name": "isEnsured",
          "type": "bool"
        }
      ],
      "name": "ensureRentDeal",
      "outputs": [
        {
          "name": "",
          "type": "bool"
        }
      ],
      "payable": false,
      "stateMutability": "nonpayable",
      "type": "function"
    },
    {
      "constant": false,
      "inputs": [
        {
          "name": "_landlordAddr",
          "type": "address"
        }
      ],
      "name": "getBalanceLandlord",
      "outputs": [
        {
          "name": "",
          "type": "uint256"
        }
      ],
      "payable": false,
      "stateMutability": "nonpayable",
      "type": "function"
    },
    {
      "constant": false,
      "inputs": [
        {
          "name": "_tenantAddr",
          "type": "address"
        }
      ],
      "name": "getBalance",
      "outputs": [
        {
          "name": "",
          "type": "uint256"
        }
      ],
      "payable": false,
      "stateMutability": "nonpayable",
      "type": "function"
    },
    {
      "constant": true,
      "inputs": [
        {
          "name": "_landlordAddr",
          "type": "address"
        }
      ],
      "name": "getLandlordPasswd",
      "outputs": [
        {
          "name": "",
          "type": "bool"
        },
        {
          "name": "",
          "type": "bytes32"
        }
      ],
      "payable": false,
      "stateMutability": "view",
      "type": "function"
    },
    {
      "constant": true,
      "inputs": [
        {
          "name": "_tenantAddr",
          "type": "address"
        }
      ],
      "name": "getTenantPasswd",
      "outputs": [
        {
          "name": "",
          "type": "bool"
        },
        {
          "name": "",
          "type": "bytes32"
        }
      ],
      "payable": false,
      "stateMutability": "view",
      "type": "function"
    },
    {
      "constant": false,
      "inputs": [
        {
          "name": "_receiver",
          "type": "address"
        },
        {
          "name": "_amount",
          "type": "uint256"
        }
      ],
      "name": "rechargeForTenantByAddress",
      "outputs": [],
      "payable": false,
      "stateMutability": "nonpayable",
      "type": "function"
    },
    {
      "constant": false,
      "inputs": [
        {
          "name": "_landlordAddr",
          "type": "address"
        },
        {
          "name": "_amount",
          "type": "uint256"
        }
      ],
      "name": "withdrawForLandlord",
      "outputs": [],
      "payable": false,
      "stateMutability": "nonpayable",
      "type": "function"
    }
  ],
  "bytecode": "0x608060405234801561001057600080fd5b5060006001819055506000600281905550336000806101000a81548173ffffffffffffffffffffffffffffffffffffffff021916908373ffffffffffffffffffffffffffffffffffffffff160217905550613282806100706000396000f3006080604052600436106100db576000357c0100000000000000000000000000000000000000000000000000000000900463ffffffff1680631b3db8c8146100e057806327bc8fc5146101a657806334f6e4151461023b5780633bd03b90146102925780633e433b5d1461031b5780635f0b1fe0146103c657806371547ded146104135780637f2f5169146104ca5780638d57fedf14610534578063bd359b41146105bd578063c18b8a9914610646578063c337444b14610693578063d889e49f146106fd578063f6392220146107c3578063f8b2cb4f146108b0575b600080fd5b3480156100ec57600080fd5b50610147600480360381019080803590602001908201803590602001908080601f0160208091040260200160405190810160405280939291908181526020018383808284378201915050505050509192919290505050610907565b604051808573ffffffffffffffffffffffffffffffffffffffff1673ffffffffffffffffffffffffffffffffffffffff168152602001846000191660001916815260200183815260200182815260200194505050505060405180910390f35b3480156101b257600080fd5b50610221600480360381019080803590602001908201803590602001908080601f01602080910402602001604051908101604052809392919081815260200183838082843782019150505050505091929192908035906020019092919080359060200190929190505050610e5e565b604051808215151515815260200191505060405180910390f35b34801561024757600080fd5b5061027c600480360381019080803573ffffffffffffffffffffffffffffffffffffffff1690602001909291905050506110ed565b6040518082815260200191505060405180910390f35b34801561029e57600080fd5b50610319600480360381019080803573ffffffffffffffffffffffffffffffffffffffff169060200190929190803590602001908201803590602001908080601f016020809104026020016040519081016040528093929190818152602001838380828437820191505050505050919291929050505061121f565b005b34801561032757600080fd5b506103ac600480360381019080803573ffffffffffffffffffffffffffffffffffffffff169060200190929190803590602001908201803590602001908080601f016020809104026020016040519081016040528093929190818152602001838380828437820191505050505050919291929080359060200190929190505050611321565b604051808215151515815260200191505060405180910390f35b3480156103d257600080fd5b50610411600480360381019080803573ffffffffffffffffffffffffffffffffffffffff169060200190929190803590602001909291905050506118d0565b005b34801561041f57600080fd5b506104b0600480360381019080803573ffffffffffffffffffffffffffffffffffffffff169060200190929190803590602001908201803590602001908080601f016020809104026020016040519081016040528093929190818152602001838380828437820191505050505050919291929080359060200190929190803515159060200190929190505050611a80565b604051808215151515815260200191505060405180910390f35b3480156104d657600080fd5b5061050b600480360381019080803573ffffffffffffffffffffffffffffffffffffffff169060200190929190505050612091565b604051808315151515815260200182600019166000191681526020019250505060405180910390f35b34801561054057600080fd5b506105bb600480360381019080803573ffffffffffffffffffffffffffffffffffffffff169060200190929190803590602001908201803590602001908080601f01602080910402602001604051908101604052809392919081815260200183838082843782019150505050505091929192905050506120fd565b005b3480156105c957600080fd5b50610644600480360381019080803573ffffffffffffffffffffffffffffffffffffffff169060200190929190803590602001908201803590602001908080601f0160208091040260200160405190810160405280939291908181526020018383808284378201915050505050509192919290505050612433565b005b34801561065257600080fd5b50610691600480360381019080803573ffffffffffffffffffffffffffffffffffffffff169060200190929190803590602001909291905050506126d8565b005b34801561069f57600080fd5b506106d4600480360381019080803573ffffffffffffffffffffffffffffffffffffffff1690602001909291905050506128da565b604051808315151515815260200182600019166000191681526020019250505060405180910390f35b34801561070957600080fd5b50610764600480360381019080803590602001908201803590602001908080601f0160208091040260200160405190810160405280939291908181526020018383808284378201915050505050509192919290505050612946565b604051808573ffffffffffffffffffffffffffffffffffffffff1673ffffffffffffffffffffffffffffffffffffffff168152602001846000191660001916815260200183815260200182815260200194505050505060405180910390f35b3480156107cf57600080fd5b506108ae600480360381019080803573ffffffffffffffffffffffffffffffffffffffff169060200190929190803590602001908201803590602001908080601f01602080910402602001604051908101604052809392919081815260200183838082843782019150505050505091929192908035906020019092919080359060200190929190803590602001908201803590602001908080601f016020809104026020016040519081016040528093929190818152602001838380828437820191505050505050919291929080359060200190929190505050612aeb565b005b3480156108bc57600080fd5b506108f1600480360381019080803573ffffffffffffffffffffffffffffffffffffffff169060200190929190505050612f71565b6040518082815260200191505060405180910390f35b6000806000806000610918866130a3565b9050610923816130b1565b15610d33576000151560056000836000191660001916815260200190815260200160002060070160009054906101000a900460ff1615151415610b7e577fee40c7b3e5022e029fbb8d4791d580a752eb48d913d7e8860ded934f2e8fcdc960056000836000191660001916815260200190815260200160002060010160009054906101000a900473ffffffffffffffffffffffffffffffffffffffff16876005600085600019166000191681526020019081526020016000206003015460056000866000191660001916815260200190815260200160002060040154604051808573ffffffffffffffffffffffffffffffffffffffff1673ffffffffffffffffffffffffffffffffffffffff1681526020018060200184815260200183815260200180602001838103835286818151815260200191508051906020019080838360005b83811015610a81578082015181840152602081019050610a66565b50505050905090810190601f168015610aae5780820380516001836020036101000a031916815260200191505b508381038252600c8152602001807fe69fa5e689bee68890e58a9f0000000000000000000000000000000000000000815250602001965050505050505060405180910390a160056000826000191660001916815260200190815260200160002060010160009054906101000a900473ffffffffffffffffffffffffffffffffffffffff168160056000846000191660001916815260200190815260200160002060030154600560008560001916600019168152602001908152602001600020600401549450945094509450610e56565b7fee40c7b3e5022e029fbb8d4791d580a752eb48d913d7e8860ded934f2e8fcdc960056000836000191660001916815260200190815260200160002060010160009054906101000a900473ffffffffffffffffffffffffffffffffffffffff16876005600085600019166000191681526020019081526020016000206003015460056000866000191660001916815260200190815260200160002060040154604051808573ffffffffffffffffffffffffffffffffffffffff1673ffffffffffffffffffffffffffffffffffffffff1681526020018060200184815260200183815260200180602001838103835286818151815260200191508051906020019080838360005b83811015610c9f578082015181840152602081019050610c84565b50505050905090810190601f168015610ccc5780820380516001836020036101000a031916815260200191505b50838103825260158152602001807fe8afa5e688bfe5b18be5b7b2e7bb8fe8a2abe7a79f0000000000000000000000815250602001965050505050505060405180910390a16000806000808393508260010292508191508090509450945094509450610e56565b7fee40c7b3e5022e029fbb8d4791d580a752eb48d913d7e8860ded934f2e8fcdc9600087600080604051808573ffffffffffffffffffffffffffffffffffffffff1681526020018060200184815260200183815260200180602001838103835286818151815260200191508051906020019080838360005b83811015610dc6578082015181840152602081019050610dab565b50505050905090810190601f168015610df35780820380516001836020036101000a031916815260200191505b50838103825260128152602001807fe8afa5e688bfe5b18be4b88de5ad98e59ca80000000000000000000000000000815250602001965050505050505060405180910390a160008060008083935082600102925081915080905094509450945094505b509193509193565b600080610e6a856130a3565b90506000151560056000836000191660001916815260200190815260200160002060070160019054906101000a900460ff161515148015610eda57506000151560056000836000191660001916815260200190815260200160002060070160009054906101000a900460ff161515145b15611001577fcb3f207132f418a25657c29312553042642e30c138b27558e4b248fca71cf47d60056000836000191660001916815260200190815260200160002060010160009054906101000a900473ffffffffffffffffffffffffffffffffffffffff16826000604051808473ffffffffffffffffffffffffffffffffffffffff1673ffffffffffffffffffffffffffffffffffffffff16815260200183600019166000191681526020018215151515815260200180602001828103825260308152602001807fe69c89e7a79fe8b581e8afb7e6b182e69caae5a484e79086efbc8ce8afb7e5a481526020017f84e79086e5908ee5868de4bfaee694b90000000000000000000000000000000081525060400194505050505060405180910390a16110e4565b836005600083600019166000191681526020019081526020016000206003018190555082600560008360001916600019168152602001908152602001600020600401819055507fcb3f207132f418a25657c29312553042642e30c138b27558e4b248fca71cf47d33826001604051808473ffffffffffffffffffffffffffffffffffffffff1673ffffffffffffffffffffffffffffffffffffffff1681526020018360001916600019168152602001821515151581526020018060200182810382526000815260200160200194505050505060405180910390a1600191506110e5565b5b509392505050565b60007f6f6d3799d7f38f6bff61c4fe8d5cc6485df2cd66889d470bee487c7f3de0c3bc82600360008573ffffffffffffffffffffffffffffffffffffffff1673ffffffffffffffffffffffffffffffffffffffff16815260200190815260200160002060020154604051808373ffffffffffffffffffffffffffffffffffffffff1673ffffffffffffffffffffffffffffffffffffffff168152602001828152602001806020018281038252600c8152602001807fe69fa5e8afa2e68890e58a9f0000000000000000000000000000000000000000815250602001935050505060405180910390a1600360008373ffffffffffffffffffffffffffffffffffffffff1673ffffffffffffffffffffffffffffffffffffffff168152602001908152602001600020600201549050919050565b600061122a826130a3565b9050600160056000836000191660001916815260200190815260200160002060070160026101000a81548160ff0219169083151502179055507f7dfe76448d5036e0f5ae935f71d35d83b758b1e26106bef9a91e379174f3e25983826001604051808473ffffffffffffffffffffffffffffffffffffffff1673ffffffffffffffffffffffffffffffffffffffff16815260200183600019166000191681526020018215151515815260200180602001828103825260188152602001807fe8afa5e688bfe5b18be8a2abe7a7bbe587bae688bfe6ba90000000000000000081525060200194505050505060405180910390a1505050565b60008061132d846130a3565b9050611338816130b1565b801561137357506000151560056000836000191660001916815260200190815260200160002060070160009054906101000a900460ff161515145b1561180257600560008260001916600019168152602001908152602001600020600401546005600083600019166000191681526020019081526020016000206003015401600460008773ffffffffffffffffffffffffffffffffffffffff1673ffffffffffffffffffffffffffffffffffffffff1681526020019081526020016000206002015410156114f0577fc1db6d9fd8df779bf412f855a4a3b2b0847b968ac9ec4a9fbffc50d376b80e298582856000604051808573ffffffffffffffffffffffffffffffffffffffff1673ffffffffffffffffffffffffffffffffffffffff168152602001846000191660001916815260200183815260200182151515158152602001806020018281038252602d8152602001807fe4bd99e9a29de4b88de8b6b3e4bba5e694afe4bb98e68abce98791e4bba5e58f81526020017f8ae9a696e69c88e98791e9a29d000000000000000000000000000000000000008152506040019550505050505060405180910390a1600091506118c8565b600560008260001916600019168152602001908152602001600020600401546005600083600019166000191681526020019081526020016000206003015401600460008773ffffffffffffffffffffffffffffffffffffffff1673ffffffffffffffffffffffffffffffffffffffff16815260200190815260200160002060030160008282540192505081905550600560008260001916600019168152602001908152602001600020600401546005600083600019166000191681526020019081526020016000206003015401600460008773ffffffffffffffffffffffffffffffffffffffff1673ffffffffffffffffffffffffffffffffffffffff1681526020019081526020016000206002015403600460008773ffffffffffffffffffffffffffffffffffffffff1673ffffffffffffffffffffffffffffffffffffffff16815260200190815260200160002060020181905550600160056000836000191660001916815260200190815260200160002060070160006101000a81548160ff021916908315150217905550600060056000836000191660001916815260200190815260200160002060070160016101000a81548160ff0219169083151502179055508460056000836000191660001916815260200190815260200160002060070160036101000a81548173ffffffffffffffffffffffffffffffffffffffff021916908373ffffffffffffffffffffffffffffffffffffffff1602179055507fc1db6d9fd8df779bf412f855a4a3b2b0847b968ac9ec4a9fbffc50d376b80e298582856001604051808573ffffffffffffffffffffffffffffffffffffffff1673ffffffffffffffffffffffffffffffffffffffff168152602001846000191660001916815260200183815260200182151515158152602001806020018281038252602d8152602001807fe7a79fe8b581e68890e58a9fefbc8ce59091e688bfe4b89ce68f90e98692e7a181526020017faee8aea4e8afa5e4baa4e69893000000000000000000000000000000000000008152506040019550505050505060405180910390a1600191506118c8565b7fc1db6d9fd8df779bf412f855a4a3b2b0847b968ac9ec4a9fbffc50d376b80e298582856000604051808573ffffffffffffffffffffffffffffffffffffffff1673ffffffffffffffffffffffffffffffffffffffff168152602001846000191660001916815260200183815260200182151515158152602001806020018281038252600f8152602001807fe688bfe6ba90e4b88de5ad98e59ca800000000000000000000000000000000008152506020019550505050505060405180910390a1600091505b509392505050565b6118d982613110565b156119df578060016000828254019250508190555080600460008473ffffffffffffffffffffffffffffffffffffffff1673ffffffffffffffffffffffffffffffffffffffff168152602001908152602001600020600201600082825401925050819055507f7f98840ee8b05a2e51c9ebdaa1d72ec309462552b7d5f25a2e1a8e249ad7b78633604051808273ffffffffffffffffffffffffffffffffffffffff1673ffffffffffffffffffffffffffffffffffffffff168152602001806020018281038252600c8152602001807fe58585e580bce68890e58a9f00000000000000000000000000000000000000008152506020019250505060405180910390a1611a7c565b7f7f98840ee8b05a2e51c9ebdaa1d72ec309462552b7d5f25a2e1a8e249ad7b78633604051808273ffffffffffffffffffffffffffffffffffffffff1673ffffffffffffffffffffffffffffffffffffffff168152602001806020018281038252601e8152602001807fe8b4a6e688b7e4b8bae6b3a8e5868cefbc8ce58585e580bce5a4b1e8b4a500008152506020019250505060405180910390a15b5050565b600080600080611a8f876130a3565b925060056000846000191660001916815260200190815260200160002060070160039054906101000a900473ffffffffffffffffffffffffffffffffffffffff1691508415611d97576000151560056000856000191660001916815260200190815260200160002060070160019054906101000a900460ff1615151415611d8957600160056000856000191660001916815260200190815260200160002060070160016101000a81548160ff02191690831515021790555062278d00860242016005600085600019166000191681526020019081526020016000206005018190555060056000846000191660001916815260200190815260200160002060030154600360008a73ffffffffffffffffffffffffffffffffffffffff1673ffffffffffffffffffffffffffffffffffffffff1681526020019081526020016000206002015401600360008a73ffffffffffffffffffffffffffffffffffffffff1673ffffffffffffffffffffffffffffffffffffffff1681526020019081526020016000206002018190555060056000846000191660001916815260200190815260200160002060030154600460008473ffffffffffffffffffffffffffffffffffffffff1673ffffffffffffffffffffffffffffffffffffffff1681526020019081526020016000206003015403600460008473ffffffffffffffffffffffffffffffffffffffff1673ffffffffffffffffffffffffffffffffffffffff168152602001908152602001600020600301819055507f2e339312d63dcd80f6b919921df38d022fd25adca7c4f10bdae9bca9320eb1fa8884886001604051808573ffffffffffffffffffffffffffffffffffffffff1673ffffffffffffffffffffffffffffffffffffffff168152602001846000191660001916815260200183815260200182151515158152602001806020018281038252601b8152602001807fe7a79fe8b581e68890e58a9fefbc8ce9809ae79fa5e7a79fe688b700000000008152506020019550505050505060405180910390a1611d92565b60019350612086565b612085565b60056000846000191660001916815260200190815260200160002060070160019054906101000a900460ff16158015611df8575060056000846000191660001916815260200190815260200160002060070160009054906101000a900460ff165b15611fc357600060056000856000191660001916815260200190815260200160002060070160016101000a81548160ff021916908315150217905550600060056000856000191660001916815260200190815260200160002060070160006101000a81548160ff021916908315150217905550600560008460001916600019168152602001908152602001600020600401546005600085600019166000191681526020019081526020016000206003015401905080600460008473ffffffffffffffffffffffffffffffffffffffff1673ffffffffffffffffffffffffffffffffffffffff1681526020019081526020016000206002015401600460008473ffffffffffffffffffffffffffffffffffffffff1673ffffffffffffffffffffffffffffffffffffffff1681526020019081526020016000206002018190555080600460008473ffffffffffffffffffffffffffffffffffffffff1673ffffffffffffffffffffffffffffffffffffffff1681526020019081526020016000206003015403600460008473ffffffffffffffffffffffffffffffffffffffff1673ffffffffffffffffffffffffffffffffffffffff168152602001908152602001600020600301819055505b7f2e339312d63dcd80f6b919921df38d022fd25adca7c4f10bdae9bca9320eb1fa8884886000604051808573ffffffffffffffffffffffffffffffffffffffff1673ffffffffffffffffffffffffffffffffffffffff168152602001846000191660001916815260200183815260200182151515158152602001806020018281038252601b8152602001807fe7a79fe8b581e5a4b1e8b4a5efbc8ce9809ae79fa5e7a79fe688b700000000008152506020019550505050505060405180910390a15b5b505050949350505050565b60008061209d83613110565b156120f0576001600460008573ffffffffffffffffffffffffffffffffffffffff1673ffffffffffffffffffffffffffffffffffffffff16815260200190815260200160002060010154915091506120f8565b600080915091505b915091565b61210682613110565b15156123855781600460008473ffffffffffffffffffffffffffffffffffffffff1673ffffffffffffffffffffffffffffffffffffffff16815260200190815260200160002060000160006101000a81548173ffffffffffffffffffffffffffffffffffffffff021916908373ffffffffffffffffffffffffffffffffffffffff160217905550612196816130a3565b600460008473ffffffffffffffffffffffffffffffffffffffff1673ffffffffffffffffffffffffffffffffffffffff16815260200190815260200160002060010181600019169055506000600460008473ffffffffffffffffffffffffffffffffffffffff1673ffffffffffffffffffffffffffffffffffffffff16815260200190815260200160002060030181905550612710600460008473ffffffffffffffffffffffffffffffffffffffff1673ffffffffffffffffffffffffffffffffffffffff1681526020019081526020016000206002018190555060078290806001815401808255809150509060018203906000526020600020016000909192909190916101000a81548173ffffffffffffffffffffffffffffffffffffffff021916908373ffffffffffffffffffffffffffffffffffffffff160217905550507fa0f79b671b4399e78e5988842c7878ce727f7b21a51a112920d9f3cc2c6749a7336001604051808373ffffffffffffffffffffffffffffffffffffffff1673ffffffffffffffffffffffffffffffffffffffff16815260200182151515158152602001806020018281038252600c8152602001807fe6b3a8e5868ce68890e58a9f0000000000000000000000000000000000000000815250602001935050505060405180910390a161242f565b7fa0f79b671b4399e78e5988842c7878ce727f7b21a51a112920d9f3cc2c6749a7336000604051808373ffffffffffffffffffffffffffffffffffffffff1673ffffffffffffffffffffffffffffffffffffffff1681526020018215151515815260200180602001828103825260158152602001807fe8afa5e8b4a6e688b7e5b7b2e7bb8fe6b3a8e5868c0000000000000000000000815250602001935050505060405180910390a15b5050565b61243c826131b3565b151561262a5781600360008473ffffffffffffffffffffffffffffffffffffffff1673ffffffffffffffffffffffffffffffffffffffff16815260200190815260200160002060000160006101000a81548173ffffffffffffffffffffffffffffffffffffffff021916908373ffffffffffffffffffffffffffffffffffffffff1602179055506124cc816130a3565b600360008473ffffffffffffffffffffffffffffffffffffffff1673ffffffffffffffffffffffffffffffffffffffff168152602001908152602001600020600101816000191690555060068290806001815401808255809150509060018203906000526020600020016000909192909190916101000a81548173ffffffffffffffffffffffffffffffffffffffff021916908373ffffffffffffffffffffffffffffffffffffffff160217905550507fdc533ced67a75b8ee439aa738921719b0a8e402585bc2f7a87a18976a1a3b5bf336001604051808373ffffffffffffffffffffffffffffffffffffffff1673ffffffffffffffffffffffffffffffffffffffff16815260200182151515158152602001806020018281038252600c8152602001807fe6b3a8e5868ce68890e58a9f0000000000000000000000000000000000000000815250602001935050505060405180910390a16126d4565b7fdc533ced67a75b8ee439aa738921719b0a8e402585bc2f7a87a18976a1a3b5bf336000604051808373ffffffffffffffffffffffffffffffffffffffff1673ffffffffffffffffffffffffffffffffffffffff1681526020018215151515815260200180602001828103825260158152602001807fe8afa5e8b4a6e688b7e5b7b2e7bb8fe6b3a8e5868c0000000000000000000000815250602001935050505060405180910390a15b5050565b80600360008473ffffffffffffffffffffffffffffffffffffffff1673ffffffffffffffffffffffffffffffffffffffff1681526020019081526020016000206002015410156127e9577f3f105d2c4d1d19b11338d06a6a66c5069b82855c17542d49f49fc159d0f9514c33604051808273ffffffffffffffffffffffffffffffffffffffff1673ffffffffffffffffffffffffffffffffffffffff16815260200180602001828103825260218152602001807fe4bd99e9a29de4b88de8b6b3efbc8ce8afb7e9998de4bd8ee4bd93e78eb0e9a281526020017f9d000000000000000000000000000000000000000000000000000000000000008152506040019250505060405180910390a16128d6565b80600360008473ffffffffffffffffffffffffffffffffffffffff1673ffffffffffffffffffffffffffffffffffffffff168152602001908152602001600020600201600082825403925050819055507f3f105d2c4d1d19b11338d06a6a66c5069b82855c17542d49f49fc159d0f9514c33604051808273ffffffffffffffffffffffffffffffffffffffff1673ffffffffffffffffffffffffffffffffffffffff168152602001806020018281038252600c8152602001807fe68f90e78eb0e68890e58a9f00000000000000000000000000000000000000008152506020019250505060405180910390a15b5050565b6000806128e6836131b3565b15612939576001600360008573ffffffffffffffffffffffffffffffffffffffff1673ffffffffffffffffffffffffffffffffffffffff1681526020019081526020016000206001015491509150612941565b600080915091505b915091565b600080600080600080600091505b600880549050821015612ac45760088281548110151561297057fe5b906000526020600020015490506000151560056000836000191660001916815260200190815260200160002060070160009054906101000a900460ff1615151480156129eb57506000151560056000836000191660001916815260200190815260200160002060070160029054906101000a900460ff161515145b156129f557612ab7565b6129fe876130a3565b6000191660056000836000191660001916815260200190815260200160002060080154600019161415612ab65760056000826000191660001916815260200190815260200160002060010160009054906101000a900473ffffffffffffffffffffffffffffffffffffffff168160056000846000191660001916815260200190815260200160002060030154600560008560001916600019168152602001908152602001600020600401549550955095509550612ae2565b5b8180600101925050612954565b60008060008083935082600102925081915080905095509550955095505b50509193509193565b6000612af6866130a3565b9050612b01816130b1565b1515612ebe578060056000836000191660001916815260200190815260200160002060000181600019169055508660056000836000191660001916815260200190815260200160002060010160006101000a81548173ffffffffffffffffffffffffffffffffffffffff021916908373ffffffffffffffffffffffffffffffffffffffff1602179055508460056000836000191660001916815260200190815260200160002060020181905550612bb7836130a3565b60056000836000191660001916815260200190815260200160002060080181600019169055508360056000836000191660001916815260200190815260200160002060030181905550426005600083600019166000191681526020019081526020016000206005018190555042600560008360001916600019168152602001908152602001600020600601819055508160056000836000191660001916815260200190815260200160002060040181905550600060056000836000191660001916815260200190815260200160002060070160036101000a81548173ffffffffffffffffffffffffffffffffffffffff021916908373ffffffffffffffffffffffffffffffffffffffff160217905550600060056000836000191660001916815260200190815260200160002060070160006101000a81548160ff021916908315150217905550600060056000836000191660001916815260200190815260200160002060070160016101000a81548160ff021916908315150217905550600060056000836000191660001916815260200190815260200160002060070160026101000a81548160ff0219169083151502179055506008819080600181540180825580915050906001820390600052602060002001600090919290919091509060001916905550600360008873ffffffffffffffffffffffffffffffffffffffff1673ffffffffffffffffffffffffffffffffffffffff1681526020019081526020016000206003018190806001815401808255809150509060018203906000526020600020016000909192909190915090600019169055507fc76eaf9a10f2c9fd986c14d278d74daba1154b2298dc212dc50ef2ac66fffd37336001604051808373ffffffffffffffffffffffffffffffffffffffff1673ffffffffffffffffffffffffffffffffffffffff1681526020018215151515815260200180602001828103825260128152602001807fe6b7bbe58aa0e688bfe6ba90e68890e58a9f0000000000000000000000000000815250602001935050505060405180910390a1612f68565b7fc76eaf9a10f2c9fd986c14d278d74daba1154b2298dc212dc50ef2ac66fffd37336000604051808373ffffffffffffffffffffffffffffffffffffffff1673ffffffffffffffffffffffffffffffffffffffff1681526020018215151515815260200180602001828103825260158152602001807fe688bfe6ba90e5b7b2e7bb8fe8a2abe6b7bbe58aa00000000000000000000000815250602001935050505060405180910390a15b50505050505050565b60007f6f6d3799d7f38f6bff61c4fe8d5cc6485df2cd66889d470bee487c7f3de0c3bc82600460008573ffffffffffffffffffffffffffffffffffffffff1673ffffffffffffffffffffffffffffffffffffffff16815260200190815260200160002060020154604051808373ffffffffffffffffffffffffffffffffffffffff1673ffffffffffffffffffffffffffffffffffffffff168152602001828152602001806020018281038252600c8152602001807fe69fa5e8afa2e68890e58a9f0000000000000000000000000000000000000000815250602001935050505060405180910390a1600460008373ffffffffffffffffffffffffffffffffffffffff1673ffffffffffffffffffffffffffffffffffffffff168152602001908152602001600020600201549050919050565b600060208201519050919050565b600080600090505b6008805490508110156131055782600019166008828154811015156130da57fe5b90600052602060002001546000191614156130f8576001915061310a565b80806001019150506130b9565b600091505b50919050565b600080600090505b6007805490508110156131a8578273ffffffffffffffffffffffffffffffffffffffff1660078281548110151561314b57fe5b9060005260206000200160009054906101000a900473ffffffffffffffffffffffffffffffffffffffff1673ffffffffffffffffffffffffffffffffffffffff16141561319b57600191506131ad565b8080600101915050613118565b600091505b50919050565b600080600090505b60068054905081101561324b578273ffffffffffffffffffffffffffffffffffffffff166006828154811015156131ee57fe5b9060005260206000200160009054906101000a900473ffffffffffffffffffffffffffffffffffffffff1673ffffffffffffffffffffffffffffffffffffffff16141561323e5760019150613250565b80806001019150506131bb565b600091505b509190505600a165627a7a72305820da1e9a3cce64b4bd5c4ee6e0d087ee63198c80f6a7ca2263fd51498e25bf00e50029",
  "source": "pragma solidity 0.4.24;\r\ncontract ChainHome{\r\n    address owner;//\r\n    uint totalAmount;//\r\n    uint withdrawAmount;//\r\n    \r\n\tstruct House{\r\n        bytes32 houseID;//id \r\n        address belong;// \r\n        uint area; //\r\n        uint price_month;//\r\n        uint cash_pledge;//\r\n        uint end_time;//\r\n        uint signed_time;//\r\n        bool isRented;//\r\n        bool isEnsured;//\r\n        bool isDisuse;//\r\n        address beRentBy;//\r\n\t\tbytes32 location;\r\n        bytes32 otherinfo;//\r\n    }\r\n    struct Landlord{\r\n        address landlordAddr;//address\r\n        bytes32 passwd;//\r\n        uint balance;//\r\n        bytes32[] rentHouses;//\r\n    }\r\n    struct Tenant{\r\n        address tenantAddr;//\r\n        bytes32 passwd; //\r\n        uint balance;//\r\n        uint frozenBalance;//\r\n        bytes32[] nowLivingHouses;//\r\n    }\r\n    // struct Deal{//\r\n    //     address landlord;\r\n    //     address tenant;\r\n    //     bytes32 houseID;\r\n    //     uint start_time;\r\n    //     uint end_time;\r\n    // }\r\n    mapping(address=>Landlord) landlord;//address\r\n    mapping(address=>Tenant) tenant;//address\r\n    mapping(bytes32=>House) house;//\r\n    //mapping(bytes32=>Deal) deal;//ID\r\n\r\n    address[] landlords;//,address\r\n    address[] tenants;//,address\r\n    bytes32[] houses;//,houseId\r\n   // bytes32[] deals;//houseId\r\n    \r\n\t//\r\n    function ChainHome(){\r\n        totalAmount=0;\r\n        withdrawAmount=0;\r\n        owner=msg.sender;\r\n    }\r\n    //\r\n    event NewLandLord(address sender,bool isSuccess,string message);\r\n    function newLandLord(address _landlordAddr,string _passwd){\r\n        // \r\n        if(!isLandlordAlreadyIn(_landlordAddr)){//\r\n            landlord[_landlordAddr].landlordAddr=_landlordAddr;\r\n            landlord[_landlordAddr].passwd=stringToBytes32(_passwd);\r\n            landlords.push(_landlordAddr);\r\n            NewLandLord(msg.sender,true,\"\");\r\n            return;\r\n        }else{\r\n            NewLandLord(msg.sender,false,\"\");\r\n            return;\r\n        }\r\n    }\r\n    //\r\n    event NewTenant(address sender,bool isSuccess,string message);\r\n    function newTenant(address _tenantAddr,string _passwd){\r\n        // \r\n        if(!isTenantsAlreadyIn(_tenantAddr)){\r\n            tenant[_tenantAddr].tenantAddr=_tenantAddr;\r\n            tenant[_tenantAddr].passwd=stringToBytes32(_passwd);\r\n            tenant[_tenantAddr].frozenBalance=0;\r\n//10000\r\n\t\t\ttenant[_tenantAddr].balance=10000;\r\n            tenants.push(_tenantAddr);\r\n            NewTenant(msg.sender,true,\"\");\r\n            return;\r\n        }else{\r\n            NewTenant(msg.sender,false,\"\");\r\n            return;\r\n        }\r\n    }\r\n    //\r\n    function isLandlordAlreadyIn(address _landlordAddr) internal returns(bool){\r\n        for(uint i =0; i< landlords.length;i++){\r\n            if(landlords[i]==_landlordAddr){\r\n                return true;\r\n            }\r\n        }\r\n        return false;\r\n    }\r\n    //\r\n    function isTenantsAlreadyIn(address _tenantAddr) internal returns(bool){\r\n        for(uint i =0; i< tenants.length;i++){\r\n            if(tenants[i]==_tenantAddr){\r\n                return true;\r\n            }\r\n        }\r\n        return false;\r\n    }\r\n    //\r\n    function isHouseAlreadyIn(bytes32 _houseID)internal returns(bool){\r\n        for(uint i=0;i<houses.length;i++){\r\n            if(houses[i]==_houseID){\r\n                return true;\r\n            }\r\n        }\r\n        return false;\r\n    }\r\n    \r\n    //\r\n    event AddHouse(address sender,bool isSuccess,string message);\r\n    function addHouse(address _landlordAddr,string _houseID,uint _area,uint _price,string _location,uint _cash_pledge){\r\n        bytes32 tempID=stringToBytes32(_houseID);\r\n        if(!isHouseAlreadyIn(tempID)){//\r\n            house[tempID].houseID=tempID;\r\n            house[tempID].belong=_landlordAddr;\r\n            house[tempID].area=_area;\r\n\t\t\thouse[tempID].location=stringToBytes32(_location);\r\n            house[tempID].price_month=_price;\r\n            house[tempID].end_time=now;\r\n            house[tempID].signed_time=now;\r\n            house[tempID].cash_pledge=_cash_pledge;\r\n            house[tempID].beRentBy=0x0;\r\n            house[tempID].isRented=false;\r\n            house[tempID].isEnsured=false;\r\n            house[tempID].isDisuse=false;\r\n            houses.push(tempID);\r\n            landlord[_landlordAddr].rentHouses.push(tempID);\r\n            AddHouse(msg.sender,true,\"\");\r\n            return;\r\n        }else{\r\n            AddHouse(msg.sender,false,\"\");\r\n            return;\r\n        }\r\n    }\r\n    //idid,\r\n    event GetHouseByHouseId(address belong,string houseID,uint price_month,uint cash_pledge,string message);\r\n    function getHouseByHouseId(string houseID)returns(address,bytes32,uint,uint){\r\n        bytes32 _houseID = stringToBytes32(houseID);\r\n        if(isHouseAlreadyIn(_houseID)){\r\n\t\t\tif(house[_houseID].isRented==false){\r\n\t            GetHouseByHouseId(house[_houseID].belong,houseID,house[_houseID].price_month,house[_houseID].cash_pledge,\"\");\r\n            \treturn (house[_houseID].belong,_houseID,house[_houseID].price_month,house[_houseID].cash_pledge);\r\n\t\t\t}else{\t\t\r\n\t          GetHouseByHouseId(house[_houseID].belong,houseID,house[_houseID].price_month,house[_houseID].cash_pledge,\"\");\r\n          \t  return (0x0,0,0,0);\r\n\t\t\t}\r\n        }else{\r\n\r\n\t            GetHouseByHouseId(0x0,houseID,0,0,\"\");\r\n            return (0x0,0,0,0);\r\n        }\r\n    }\r\n\t//id,\r\n\tfunction searchHouseByKeyWords(string  keywords)returns(address,bytes32,uint,uint){\r\n    //\r\n        for(uint i=0;i<houses.length;i++){\r\n            bytes32 _houseID=houses[i];\r\n            if(house[_houseID].isRented==false && house[_houseID].isDisuse==false )\r\n                continue;\r\n            if(house[_houseID].location==stringToBytes32(keywords)){\r\n                return (house[_houseID].belong,_houseID,house[_houseID].price_month,house[_houseID].cash_pledge);\r\n            }\r\n        }  \r\n        return (0x0,0,0,0);\r\n    }\r\n    \r\n    //\r\n    event UpdateHouseInfo(address sender,bytes32 houseID,bool isSuccess,string message);\r\n    function updateHouseInfo(string _houseID,uint price,uint _cash_pledge)returns(bool){\r\n        bytes32 tempID=stringToBytes32(_houseID);\r\n        if(house[tempID].isEnsured==false&&house[tempID].isRented==false){\r\n            UpdateHouseInfo(house[tempID].belong,tempID,false,\"\");\r\n        }else{\r\n            house[tempID].price_month=price;\r\n            house[tempID].cash_pledge=_cash_pledge;\r\n            UpdateHouseInfo(msg.sender,tempID,true,\"\");\r\n            return true;\r\n        }\r\n    }\r\n    \r\n    //\r\n    event DeleteHouse(address sender,bytes32 houseID,bool isSuccess,string message);\r\n    function deleteHouse(address _landlordAddr,string houseID){\r\n        bytes32 tempID=stringToBytes32(houseID);\r\n        house[tempID].isDisuse=true;\r\n        DeleteHouse(_landlordAddr,tempID,true,\"\");\r\n    }\r\n    \r\n    //\r\n    event RentHouse(address sender,bytes32 houseID,uint _months,bool isSuccess,string message);\r\n    function rentHouse(address _tenantAddr,string _houseID,uint _months)returns(bool){\r\n        bytes32 tempID=stringToBytes32(_houseID);\r\n        if(isHouseAlreadyIn(tempID)&&(house[tempID].isRented==false)){\r\n            if(tenant[_tenantAddr].balance<house[tempID].price_month+house[tempID].cash_pledge){\r\n                RentHouse(_tenantAddr,tempID,_months,false,\"\");\r\n                return false;\r\n            }else {\r\n                tenant[_tenantAddr].frozenBalance+=house[tempID].price_month+house[tempID].cash_pledge;//\r\n                tenant[_tenantAddr].balance=tenant[_tenantAddr].balance -(house[tempID].price_month+house[tempID].cash_pledge);//\r\n                house[tempID].isRented=true;\r\n                house[tempID].isEnsured=false;\r\n                house[tempID].beRentBy=_tenantAddr;\r\n                RentHouse(_tenantAddr,tempID,_months,true,\"\");\r\n                return true;\r\n            }\r\n        }\r\n        RentHouse(_tenantAddr,tempID,_months,false,\"\");\r\n        return false;\r\n    }\r\n    //\r\n    event EnsureRentDeal(address sender,bytes32 houseID,uint _months,bool isSuccess,string message);\r\n    function ensureRentDeal(address _landlordAddr,string houseID,uint _months,bool isEnsured)returns(bool){\r\n        bytes32 tempID=stringToBytes32(houseID);\r\n        address _tenantAddr=house[tempID].beRentBy;\r\n        if(isEnsured){//\r\n            if(house[tempID].isEnsured==false){//\r\n                house[tempID].isEnsured=true;\r\n                house[tempID].end_time=now+_months*30 days;\r\n                //deal[]\r\n                landlord[_landlordAddr].balance=landlord[_landlordAddr].balance+house[tempID].price_month;\r\n                tenant[_tenantAddr].frozenBalance=tenant[_tenantAddr].frozenBalance-house[tempID].price_month;\r\n                \r\n                EnsureRentDeal(_landlordAddr,tempID,_months,true,\"\");\r\n            }else{\r\n             return true;  \r\n            }\r\n        }else{//\r\n            if((!house[tempID].isEnsured)&&house[tempID].isRented){//\r\n                house[tempID].isEnsured=false;\r\n                house[tempID].isRented=false;\r\n                uint totalCost=house[tempID].price_month+house[tempID].cash_pledge;\r\n                tenant[_tenantAddr].balance=tenant[_tenantAddr].balance+totalCost;\r\n                tenant[_tenantAddr].frozenBalance = tenant[_tenantAddr].frozenBalance - totalCost;\r\n            }\r\n            EnsureRentDeal(_landlordAddr,tempID,_months,false,\"\");\r\n        }\r\n    }\r\n    \r\n\tevent GetBalance(address user,uint balance,string message);\r\n    function getBalanceLandlord(address _landlordAddr)returns(uint){\r\n        GetBalance(_landlordAddr,landlord[_landlordAddr].balance,\"\");\r\n        return landlord[_landlordAddr].balance;\r\n    }\r\n    function getBalance(address _tenantAddr)returns(uint){\r\n        GetBalance(_tenantAddr,tenant[_tenantAddr].balance,\"\");\r\n        return tenant[_tenantAddr].balance;\r\n    }\r\n    \r\n\t\r\n    //\r\n    function getLandlordPasswd(address _landlordAddr)constant returns(bool,bytes32){\r\n        if(isLandlordAlreadyIn(_landlordAddr)){\r\n            return (true,landlord[_landlordAddr].passwd);\r\n        }else{\r\n            return(false,\"\");\r\n        }\r\n    }\r\n    function getTenantPasswd(address _tenantAddr)constant returns(bool,bytes32){\r\n        if(isTenantsAlreadyIn(_tenantAddr)){\r\n            return (true,tenant[_tenantAddr].passwd);\r\n        }else{\r\n            return(false,\"\");\r\n        }\r\n    }\r\n    \r\n    event RechargeFoTenantByAddress(address sender,string message);\r\n    function rechargeForTenantByAddress(address _receiver,uint _amount){\r\n        if(isTenantsAlreadyIn(_receiver)){\r\n            totalAmount+=_amount;\r\n            tenant[_receiver].balance+=_amount;\r\n            RechargeFoTenantByAddress(msg.sender,\"\");\r\n            return;\r\n        }else{\r\n            RechargeFoTenantByAddress(msg.sender,\"\");\r\n            return ;\r\n        }\r\n    }\r\n    \r\n    event Withdraw(address sender,string message);\r\n    function withdrawForLandlord(address _landlordAddr,uint _amount){\r\n        if(landlord[_landlordAddr].balance<_amount){\r\n            Withdraw(msg.sender,\"\");\r\n        }else{\r\n            landlord[_landlordAddr].balance-=_amount;\r\n            //to  do......\r\n            Withdraw(msg.sender,\"\");\r\n        }\r\n    }\r\n\r\n    function stringToBytes32(string memory source)constant internal returns(bytes32 result){\r\n        assembly{\r\n            result := mload(add(source,32))\r\n        }\r\n    }\r\n    \r\n    function bytes32ToString(bytes32 x)constant internal returns (string) { \r\n        bytes memory bytesString = new bytes(32);\r\n        uint charCount = 0;\r\n        for (uint j = 0; j < 32; j++) { \r\n            byte char = byte(bytes32(uint(x) * 2 ** (8 * j))); \r\n            if (char != 0) { \r\n                bytesString[charCount] = char;\r\n                charCount++; \r\n            } \r\n        } \r\n        bytes memory bytesStringTrimmed = new bytes(charCount);\r\n        for (j = 0; j < charCount; j++) {\r\n            bytesStringTrimmed[j] = bytesString[j]; \r\n            \r\n        } \r\n        return string(bytesStringTrimmed); \r\n        \r\n    }\r\n\r\n}\r\n",
  "sourcePath": "/home/xiang/Desktop/ethereum/ethereum/contracts/ChainHome.sol",
  "compiler": {
    "name": "solc",
    "version": "0.4.24+commit.e67f0147.Emscripten.clang"
  },
  "schemaVersion": "2.0.1",
  "updatedAt": "2018-11-25T11:42:21.148Z"
}